:0D135B002D2D2D2D2D0A00533D25660A0075
:10134A00020A000002080000040C00000000C109A3
:10125F00AF8CEFFEAD8A7C00E42DF50BEC3EF50A6A
:10126F00E4F58CF58AAC0AAD0B1209AB7B297A5CDD
:10127F0079EF783F120800E4FBFA79C87842120937
:10128F00098F0F8E0E8D0D8C0C30090BC2097BFF51
:10129F007A13795B120DC67BFF7A137962850F285B
:0C12AF00850E27850D26850C25020DC636
:101316007C64EF4E60131CEC60087D0A1DED60F6E0
:0913260080FAEF1F70EC1E80E953
:01132F00229B
:03000B0002136875
:03136800D2093275
:10133000D292000000000000000000000000000049
:0A13400000000000000000C292222D
:1012BB00758921759850758DFD758BFDE4F58CF551
:1012CB008AD28CD2A9D28ED299D2AF12133030914E
:1012DB00FDD28C2091FDC28C12125F7F647E0012B6
:0412EB00131680E76F
:10080000EC4D6011E8497017ED33EC3304600DE4F2
:10081000FCFFFEFD22E933E8330470F8020A1912E6
:1008200009E458046009E4CC2481500628500902E8
:100830000A23284003020A20C0E0EB4A7044B98032
:1008400006D0E0FB020A0FEF4E701CBD8008EBFFE4
:10085000EAFEE9FD80EBE98DF0A4FEE5F00208E98F
:10086000E9CDF9EAFEEBFFEF89F0A4FCE5F0CE89D3
:10087000F0A42EFFE435F0CD89F0A42DFEE435F090
:100880008067EF4E7005BD80D780C3EF8BF0A4ACBE
:10089000F0EE8BF0A42CFCE435F0F8EF8AF0A42CF9
:1008A000E5F038FCE433CB8DF0A42CFCE5F03BF80C
:1008B000EE8AF0A42CFCE5F038F8E433CF89F0A4FC
:1008C0002CFCE5F038CF3400CE89F0A42FFFE5F002
:1008D0003EFEE433C98DF0A42EFEE5F039CD8AF05A
:1008E000A42FFFE5F03EFEE43DFD33D0E0FB5007D2
:1008F0000BBB000F020A23EC2CFCEF33FFEE33FEA0
:06090000ED33FD0209FBCE
:10090600020A23EC5D046005E859047003020A1923
:100916001209E4580460F6EC4860F2EC7004FDFE3F
:10092600FF22C860DB2481C85009C39860025006C4
:10093600020A209850CAF582E9294B4A7005AB8213
:10094600020A0F75F0007C1A7880C3EF9BEE9AEDD1
:1009560099400DC3EF9BFFEE9AFEED99FDE842F03C
:10096600DC23ACF0D0E0FFD0E0FED0E0FDAB82208F
:10097600E7101BEB60BAEC2CFCEF33FFEE33FEED19
:1009860033FD0209FBE803F830E705C0F075F00017
:10099600EF2FFFEE33FEED33FD40B830E7C280AAFD
:1009A60075F020800E75F010800575F0087D007ECC
:1009B600007F003392D530D503120D20EC33401062
:1009C600EF33FFEE33FEED33FDEC33FCD5F0ED22D5
:0E09D600E5F0247EA2D513CC92E7CDCEFF2211
:100D6400E5392425F8E6053922782230070278256A
:100D7400E475F001120D2E020CC82000EB7F2ED278
:100D8400008018EF540F2490D43440D4FF30040B67
:100D9400EF24BFB41A0050032461FFE53A60021542
:100DA4003A053DE53D7002053C30070D7822E475B7
:100DB400F001120D2EEF020D0E0212EF7403D20792
:100DC4008003E4C207F5398B228A238924E4F53AA7
:100DD400F53CF53DE53A60077F20120D9F80F575DF
:100DE4003BFFC201C200C202C203C205C206C2085E
:100DF400120D6DFF700D3007057F00120DB0AF3D71
:100E0400AE3C22B4255FC2D5C204120D6DFF24D0BE
:100E1400B40A00501A75F00A783A30D50508B6FFBE
:100E24000106C6A426F620D5047002D20380D92474
:100E3400CFB41A00EF5004C2E5D20402109DD201CF
:100E440080C6D20080C0D20280BCD2D580BAD2057E
:100E540080B47F20120D9F2002077401B53A004030
:100E6400F1120D64FF120D9F020DD8D208D2068034
:100E740095120D64FB120D64FA120D64F94A4B705D
:100E84000679947A117BFF20022EE53A602A7E00CF
:100E94008E82758300120CE160060EEE653B70F0E5
:100EA400C2D5EBC0E0EAC0E0E9C0E0EE1210FDD02C
:100EB400E0F9D0E0FAD0E0FB120CC8FF60AAEBC066
:100EC400E0EAC0E0E9C0E0120D9FD0E02401F9D0CF
:100ED400E03400FAD0E0FBE53B0460DCD53BD9808C
:100EE40087D20280A21210E060F7E53B7001041281
:100EF4000A2EA93B600DE53B600914F53B121187EE
:100F0400EF60F3EA30E702F404C3995077EAF4257A
:100F14003B0430E701E404F53B800D1210E060C1AE
:100F2400EA053B253B120A2EEA7838F630E701E45D
:100F3400253B04D53B04200501141210FDE4C0E058
:100F44001211877838E6601320E70714F6120D872C
:100F5400802204F6D0E014C0E07F00120D87E53B48
:100F64006007120D7E153B800B300503120D7ED0F9
:100F7400E0020DD8D0E00480C51210E060A0E53B8B
:100F840004120A2E7838EAF6E53B200502600104D3
:050F940024041210FD11
:100F990074FF04C0E0121187120D87E53B2005029A
:100FA9006003120D7ED0E0B53BE87F45120D9178C4
:100FB90038E67F2B30E7047F2DF404C0E0120D9F43
:100FC900D0E075F00A84C0F0120D88D0E0120D88C7
:100FD900020DD8791080027908C206C2088008D2A9
:100FE900D5790A8004790AC2D5E53B047002F53B3C
:100FF900E4FAFDFEFF120D64FC7B08200113120DBB
:1010090064FD7B1030000A120D64FE120D64FF7B33
:1010190020EC3382D592D55013C3E43000069FFFEC
:10102900E49EFEE42001039DFDE49CFCE4CBF8C2B0
:1010390001EC700CCFCECDCCE824F8F870F3801712
:10104900C3EF33FFEE33FEED33FDEC33FCEB33FB43
:10105900994002FB0FD8E9EB300105F8D0E0C4480C
:10106900B201C0E00AEC4D4E4F78207B0070C2EA15
:10107900B53B0040BCC0E01210FFD0F0D0E0200129
:1010890004C4C0E0C4B201C0F0120D88D0F0D5F09C
:10109900EB020DD8120D3E0E75530FDC580E464C5F
:1010A9000E42420FE04F0FE8440FE8490E5B430F31
:1010B900EE550F1F460F7D450EE94711B4500E4AF4
:1010C9002D0E4E2E0E712B0E52230E6F20119D2ABE
:1010D9000E0A4800000E69E53BB4FF03753B061292
:1010E9000D64FC120D64FD120D64FE120D64FF788F
:1010F90031020A5D790AA2D5200314300509B91015
:10110900020404B9080104A2D520060250010420F2
:1011190002689202B53A005034C0E07F20300319CA
:101129007F30A20272067205500F121156C202C216
:1011390006C205C2087F30800F300503E9C0E012FE
:101149000D9F300503D0E0F9D0E0B53ACC30051752
:101159007F30B9100C120D9F7F583004077F7880BB
:1011690003B90803120D9F3002057F2D020D9F7FE1
:10117900202008F87F2B2006F322920280CF7F00DF
:10118900B4070050052431F8E6FF22286E756C6C0F
:101199002900D201120D643001F8C201783A30D524
:1011A9000108F6020E0A2D50434958120D64240312
:1011B900B405004001E49011AF93120D90743A12F6
:0A11C9000D90D203753A04020FDC0A
:1009E400E9D2E7C933E833F892D5EDD2E7CD33EC59
:0709F40033FC5002B2D522D2
:1009FB00EC30E7100FBF000C0EBE00080DBD00045D
:100A0B000BEB6014A2D5EB13FCED92E7FD2274FF08
:100A1B00FCFDFEFF22E480F8A2D574FF13FC7D8061
:030A2B00E480EF75
:100A2E00F920E72824F950037907E4F42402FB188F
:100A3E00DBFDE624FB5014E9600DE4F618E604F63F
:0F0A4E00B40A08E4F6D9F57401F60A22C2D522DB
:100A5D00ED33EC3392D5FA602AB4FF33EDC2E77B68
:100A6D00FF60067A0A7982E4227A0A798B20D5040E
:100A7D007A0A7986224E614E002B494E46002D4949
:100A8D004E4600E47A08F608DAFC7B00740722E88B
:100A9D00C0E0ECC0E0EDC0E0EEC0E0EFC0E0EA7514
:100AAD00F010A4CAABF075F04DA42BFBE435F0FCAF
:100ABD00EA2410FAEB34C5FBEC34D9FCEDC2E7FFA8
:100ACD0075F056A4F42411C5F0F434C58FF0A42AA2
:100ADD00E5F03BE43CF620E714120C88D0E0FFD0A3
:100AED00E0FED0E0FDD0E0FC1209098014F4041200
:100AFD000C88D0E0FFD0E0FED0E0FDD0E0FC120885
:100B0D0000D0E0F8E6FAEDD2E7CD33EC332482FBEA
:100B1D00E4C3CF33CFCE33CECD33CD33DBF37B0731
:100B2D0075F00A846004F6081B0AE5F0F6088FF0EC
:100B3D00740AA4FFACF08EF0740AA42CFEACF05035
:100B4D00010C8DF0740AA42CFDE435F0F608DBDE03
:030B5D00740722F8
:100B6000020A19E86480F8E933E83360110460F0A0
:100B7000ED33EC337009E8FCE9FDEAFEEBFF2204FB
:100B800060DED3EB9FEA9EE99DE8C2E78CF0C2F7F6
:100B900095F0400CE8CCF8E9CDF9EACEFAEBCFFBC2
:100BA0001209E485D0F05804700320D5B3E804702E
:100BB000075002B2D5020A2392D5EC0460F7E4CCC8
:100BC000C0E0C398F8603B94186008400DD0E0FB8B
:100BD0000209FBE4FBFAC9FC8028E830E406E4C91A
:100BE000FBE4CAFCE830E305E4C9CACBFCE85407DF
:100BF0006010F8C3E913F9EA13FAEB13FBEC13FCEA
:100C0000D8F130F52FC3E49CFCEF9BFFEE9AFEED8C
:100C100099FDD0E0FBEF4E4D4C701222DB03020A2F
:100C200020EC2CFCEF33FFEE33FEED33FDED30E72F
:100C3000EB0209FBEF2BFFEE3AFEED39FDD0E0FBB6
:100C400050130BBB0003020A23ED13FDEE13FEEF5E
:080C500013FFEC13FC0209FB89
:100C58003F8000004120000042C80000447A0000A4
:100C6800461C400047C35000497424004B18968026
:100C78004CBEBC205A0E1BCA6753C21C749DC5AE1D
:100C8800FB60065407601C2323120CB6EB54386033
:100C980009120CA2120CB1120800ECF8EDF9EEFAE8
:100CA800EFCB22EB120CB180F1543803241C900CCA
:100CB80058FE93FC0EEE93FD0EEE930ECE93FF229C
:030000000211D317
:0C11D300787FE4F6D8FD75813D02121A09
:100CC800BB010689828A83E0225002E722BBFE022A
:090CD800E32289828A83E493225D
:100CE100BB010CE58229F582E5833AF583E02250C8
:100CF10006E92582F8E622BBFE06E92582F8E22212
:0D0D0100E58229F582E5833AF583E493222B
:100D0E00BB010689828A83F0225002F722BBFE01C4
:020D1E00F322BE
:0E0D2000C3E49FFFE49EFEE49DFDE49CFC22E4
:100D2E00FAE6FB0808E6F925F0F618E6CA3AF622C6
:100D3E00D083D082F8E4937012740193700DA3A344
:100D4E0093F8740193F5828883E473740293686058
:060D5E00EFA3A3A380DF58
:1012EF00EFB40A07740D1212FA740A309811A89904
:1012FF00B8130CC2983098FDA899C298B811F6305F
:07130F0099FDC299F5992236
:1011DF000212BBE493A3F8E493A34003F68001F259
:1011EF0008DFF48029E493A3F85407240CC8C33311
:1011FF00C4540F4420C8834004F456800146F6DFE0
:10120F00E4800B010204081020408090134AE47E12
:10121F00019360BCA3FF543F30E509541FFEE493D4
:10122F00A360010ECF54C025E060A840B8E493A39B
:10123F00FAE493A3F8E493A3C8C582C8CAC583CAC6
:10124F00F0A3C8C582C8CAC583CADFE9DEE780BE7E
:01135A000092
:00000001FF
