:0A09B100C0F9A4B0999282F880907A
:0909A700070C09081503121200E7
:0E098D00E4FFFE0FBF00010EBE01F8BF90F5A3
:01099B002239
:1008CB0075A001E509C4540F9009B193F580120985
:1008DB008D75A002E509540F93547FF58012098D95
:1008EB0075A004E508C4540F93F58012098D75A00B
:0B08FB0008E508540F93F58002098DFA
:10097B007E08EF139291D29000C290EFC313FFDE6B
:01098B00F17A
:01098C002248
:10093800E4FF7E08D291EFC313FF30910343078091
:07094800D29000C290DEED29
:01094F002285
:10095000C29200C29000D29212097B00AF05120928
:070960007BD29000C292223D
:10096700C29200C29000D29212097B120938D2902B
:0309770000C29229
:01097A00225A
:10088C00E4FD7F8E120950AD0C7F8C120950AD0D1A
:10089C007F88120950AD0E7F86120950AD0F7F8AEA
:1008AC00120950AD107F84120950AD117F821209CC
:0F08BC0050AD127F801209507D807F8E0209504F
:100906007F811209678F087F831209678F097F85A8
:100916001209678F157F8B1209678F0B7F87120964
:10092600678F147F891209678F0A7F8D1209678F77
:0209360013228A
:0B099C0012088C1209061208CB80F82C
:03000000020800F3
:0C080000787FE4F6D8FD758115020847EA
:10080C0002099CE493A3F8E493A34003F68001F25D
:10081C0008DFF48029E493A3F85407240CC8C333ED
:10082C00C4540F4420C8834004F456800146F6DFBC
:10083C00E4800B01020408102040809009A7E47E9C
:10084C00019360BCA3FF543F30E509541FFEE493B1
:10085C00A360010ECF54C025E060A840B8E493A378
:10086C00FAE493A3F8E493A3C8C582C8CAC583CAA3
:10087C00F0A3C8C582C8CAC583CADFE9DEE780BE5B
:0109B0000046
:00000001FF
