:040000000C944D000F
:040040000C947B01A0
:0D008C00C0F9A4B0999282F88090FF00FFA7
:14009A00CFEFD0E1CDBFDEBFCE51D0400AEA08830024EDE01B
:1400AE00F1E011E0EB31F10711F00192FBCF0083ECE8F0E0E3
:1400C200A0E0B1E010E000E00BBFE939F10721F0C895319630
:1400D6000D92F9CF0E943402FFCF0E948902A22EC02E139A71
:1400EA0004E110E0E7D01C9804E110E0E3D01A9804E110E0B3
:1400FE00DFD01C9A04E110E0DBD048E012C0C0FE02C01B9ADA
:1401120001C01B9804E110E0D1D01A9A0000000000001A9889
:1401260004E110E0C9D0C6944A9580E0841758F348E012C0DE
:14013A00A0FE02C01B9A01C01B9804E110E0BAD01A9A04E130
:14014E0010E0B6D01A9804E110E0B2D0A6944A9580E084170A
:1401620058F31C9804E110E0A9D0139804E110E0A5D00C94A7
:1401760090020E947B02A02E4427A394139A04E110E09AD068
:14018A001C9804E110E096D01A9804E110E092D01C9A04E1EE
:14019E0010E08ED068E012C0A0FE02C01B9A01C01B9804E177
:1401B20010E084D01A9A04E110E080D01A9804E110E07CD049
:1401C600A6946A9580E0861758F3139804E110E073D068E099
:1401DA0010C046950B9B01C0406804E110E06AD01A9A04E1AF
:1401EE0010E066D01A9804E110E062D06A9580E0861768F3C7
:140202001C9804E110E05AD0042F0C94820220E80EE865DF9C
:140216000EE8AFDF003811F401E001C00027089522270EE86E
:14022A005ADF20E800E857DF29EA00E954DF209114010CE878
:14023E0050DF2091150108E84CDF2091160106E848DF20910D
:140252001A010AE844DF2091170104E840DF2091180102E8E0
:140266003CDF2091190100E838DF20E80EE835CFAA920CE86D
:14027A007EDF0093140108E87ADF0093150106E876DFA02E68
:14028E00A09216010AE871DFA02EA0921A0104E86CDFA02EB1
:1402A200A092170102E867DFA02EA092180100E862DFA02EBE
:1402B600A0921901A990089501C00A950023E9F708954A9335
:1402CA0007C04CED01C04A954423E9F7015010400030010760
:1402DE00B1F7499108958DEE82BF222422BE83E181BF84E003
:1402F20083BF08952A920A931A938A939A93AA93EA93FA9382
:140306002FB62A928DEE82BF8FEF85BB22242BBA8DE091E0BF
:14031A00E0910B01FF27E80FF91F208025BA00910B011127C9
:14032E0000300107A9F00130E0E01E07A1F00230E0E01E072C
:1403420099F00330E0E01E0791F00430E0E01E0789F00530BE
:14035600E0E01E0781F011C080E88BBB0EC080E48BBB0BC07B
:14036A0080E28BBB08C080E18BBB05C088E08BBB02C084E0CF
:14037E008BBB80910B018F5F282E20920B0185E0821518F4FE
:14039200222420920B0129902FBEF991E991A991999189912B
:1403A600199109912990189580E091E0E0911701FF27E07FBA
:1403BA00F070F595E795F595E795F595E795F595E795E80FC0
:1403CE00F91F208020921201E0911701FF27EF70F070E80F39
:1403E200F91F80818F778093110180E091E0E0911801FF2742
:1403F600E07FF070F595E795F595E795F595E795F595E7951C
:14040A00E80FF91F208020921001E0911801FF27EF70F070FD
:14041E00E80FF91F80818F7780930F0180E091E0E091190135
:14043200FF27E07FF070F595E795F595E795F595E795F59535
:14044600E795E80FF91F208020920E01E0911901FF27EF70A6
:14045A00F070E80FF91F208020920D010895AA24BB248FEFF7
:14046E008ABB8BBB82B98CE183B98FEF84BB85BB809161009C
:140482008E6080936100809162008E608093620080916200BB
:14049600877F809362008FEF8BBBBC9AC49A81E180931401D5
:1404AA0083E08093150180E28093160182E180931701222452
:1404BE00209218012092190120921A0108EC10E0FCDEAADE80
:1404D20004E610E0F8DEF89404DF222425BE85E087BF789417
:1404E60005C0C6DE61DF04EF11E0EBDEFACF08957A936A933C
:1404FA005A934A93BA92AA920895A990B990499159916991BF
:14050E00799108955A934A93DA92CA92BA92AA920895A99042
:0C052200B990C990D99049915991089561
:00000001FF
