:10000000830100308A004428F10003088301BE0008
:100010000408BF000A08C0008A017008C3000B1161
:10002000E830831203138100FF308800DF30850041
:100030002008213E840083130008880028281D30F2
:1000400026281B302628173026280F308500342814
:10005000200803191F28013A03192128033A03191C
:100060002328013A031925280430A00A2002031886
:10007000A0014308F0003F08840040088A003E08C1
:100080008300F10E710E09002030840032305820B8
:1000900083010730C200F430C100323084003E30AA
:1000A0005C2083010A128A11C12F04068001840A90
:1000B0000406031D55280034F0000A128A116C2032
:1000C0000A128A118000840A040870060319003499
:1000D0005D2883120313C100C21B7728421B7F28AF
:1000E00042088A004108C10A0319C20A8200831328
:0E00F000421883174108C10A84000008080066
:100D50008301AD00AC2EAD0383120313AD0803195C
:100D60000800AB2EBE2EDC30B100B1080319BA2E3C
:100D7000B103B52EAF080319B003AF0383120313F9
:100D800030082F0403190800B32E83012A08F03914
:100D9000F000F00E0F30F0057008323E840083132F
:100DA0000008A4002A080F39323E840000087F3969
:100DB000A3002B08F039F000F00E0F30F00570089A
:100DC000323E84000008A2002B080F39323E840016
:100DD0000008A10008008301AF00B001B101AF0A13
:100DE0008316871000000000831207110000000026
:100DF0000710000000000715000000000830B100D7
:100E00002F1C042F8714052F8710000000000714E3
:100E1000000000000710000000000310AF0CB10B31
:100E2000002F831687140000000008308312B100E1
:100E30000310B00C8718B017000000000714000062
:100E40000000071000000000B10B182F0711000070
:100E50000000300808008C30EB26A6008830EB2616
:100E6000A7008630EB26A8008A30EB26AC00843041
:100E7000EB26A9008230EB26AA008030EB26AB00DF
:100E800008008301B000B101831687100000000044
:100E90008312071100000000071000000000071572
:100EA000000000000830B100301C582F8714592F63
:100EB0008710000000000714000000000710000069
:100EC00000000310B00CB10B542F0830B1002F1CE0
:100ED0006B2F87146C2F8710000000000714000090
:100EE00000000710000000000310AF0CB10B672FCB
:100EF0000711000000008316871400000000831211
:100F0000080080308301AF008E3041278E30EB2601
:100F1000803A0319013400348301AF018E30412738
:100F20008030AF004127A930AF009030412726081C
:100F3000AF008C3041272708AF00883041272808B0
:100F4000AF00863041272C08AF008A30412729089E
:100F5000AF00843041272A08AF00823041272B0898
:100F6000AF00803041278030AF008E30412F0730F6
:100F7000831603138100A0308B00E83083128100B8
:100F8000080083120313AD01AE0183168501DF3023
:100F90008312850083168801FF3083128800033096
:100FA0008316890005308312890089018316870121
:100FB000FF30831287000930A6000830A7002030D8
:100FC000A8001230A900AA00AB010430AC008C27A5
:100FD0000A128A11B7272B270A128A11C5266430F4
:100FE000AF00B001B226EB2FC034F934A434B034D2
:100FF000993492348234F83480349034FF34FF349E
:02400E00323F3F
:00000001FF
