:100DC8006D637573747564696F2E636F6D2E636ED2
:100DD8000066687778616F6F403136332E636F6DC8
:100DE800200020202020202020202020202020201B
:100DF800202000303132333435363738392E2D4DF6
:020E08000000E8
:100ECE00010E0002080000040A00000000C1000428
:050EDE000F0000000000
:100EF9008F19120EE4851990D2B3C2B4C2B5C2B526
:030F0900D2B5223C
:040E66007D017C008E
:100E6A008F19ED4C6003120EE4851990C2B3C2B417
:070E7A00C2B5C2B5D2B522DA
:0D0F1B00D2B3D2B4C2B5C2B5D2B5AF9022E8
:100EE4007590FFC2B3D2B4C2B5C2B5D2B5E59020F5
:050EF400E7FBAF9022B6
:100D8000E4F590FDFC7F38120E6A120F0CE4FDFCB6
:100D90007F38120E6A120F0CE4FDFC7F38120E6AC7
:100DA000120F0C7F38120E667F08120E667D017CD2
:100DB000007F01120E6A7D017C007F06120E6A7DA3
:080DC000017C007F0F020E6AA6
:0A0E4300900E05E493FB7D017F0192
:100E4D008B1853050153070FED600343074043070C
:090E5D0080120E66AF18020EF9B6
:080E0A008F138D148A158B165D
:100E1200E4F51753140153130FE5162517F582E471
:100E22003515F583E493FBD394194014E513D39459
:100E32000F50E6AD14AF13120E4D0517051380D9EE
:010E4200228D
:0E0F0C007FB07E15EF1FAC0670011E4C70F614
:010F1A0022B4
:100EB5007D05AC051DEC60107E1C7F65EF1FAA0645
:080EC50070011E4A60EC80F48C
:010ECD002202
:100B5200AF8CEFFEAD8A7C00E42DF509EC3EF50882
:100B6200E4F58CF58AAC08AD091209AB7B9A7A9947
:100B720079D9783F120800E4FBFA79C87842120961
:100B8200091209E48F0D8E0C8D0B8C0AE47FBC7E5A
:100B920002FDFCAB0DAA0CA90BA80AC3120B415013
:100BA20003300026C200900E06E493FB7D01E4FFB1
:100BB200120E4D120E43900E06E493FB7D017F024E
:100BC200120E4D900E06E4020C83E47BE87A03F9E0
:100BD200F8AF0DAE0CAD0BAC0A120AA1AC00AD0120
:100BE200AE02AF03E47B64FAF9F8120AA18F0FE4B4
:100BF2007BE87A03F9F8AF0DAE0CAD0BAC0A120A22
:100C0200A1AC00AD01AE02AF03E47B64FAF9F812C5
:100C12000AA1AC00AD01AE02AF03E47B0AFAF9F817
:100C2200120AA18F10E47BE87A03F9F8AF0DAE0C3B
:100C3200AD0BAC0A120AA1AC00AD01AE02AF03E4E7
:100C42007B0AFAF9F8120AA1AC00AD01AE02AF03B9
:100C5200E47B0AFAF9F8120AA1AF038F11E50F90AB
:100C62000DFB93FB7D01E4FF120E4D120E43E510C6
:100C7200900DFB93FB7D017F02120E4DE511900D4D
:100C8200FB93FB7D017F03120E4D900E07E493FB55
:080C92007D017F04120E4D22CA
:03000B00020F28B9
:030F2800D20032C2
:100E8100D2A60000000000000000000000000000E9
:0A0E910000000000000000C2A622CD
:100E9B007C64EF4E60131CEC60087D0A1DED60F660
:090EAB0080FAEF1F70EC1E80E9D3
:010EB400221B
:100D2600120EB5120D80120F0C7A0D7BC8E4FDFF72
:100D3600120E0A7A0D7BD97D01E4FF120E0A120FFC
:100D46001BE4FB120EB50BBB0AF97A0D7BEA7D019B
:100D5600E4FF120E0A758901E4F58CF58AD2A9D250
:100D6600AF120E8130A7FDD28C20A7FDC28C120BCC
:0A0D7600527F507E00120E9B80E7B2
:10080000EC4D6011E8497017ED33EC3304600DE4F2
:10081000FCFFFEFD22E933E8330470F8020A5012AF
:100820000A1B58046009E4CC2481500628500902B0
:100830000A5A284003020A57C0E0EB4A7044B980C4
:1008400006D0E0FB020A46EF4E701CBD8008EBFFAD
:10085000EAFEE9FD80EBE98DF0A4FEE5F00208E98F
:10086000E9CDF9EAFEEBFFEF89F0A4FCE5F0CE89D3
:10087000F0A42EFFE435F0CD89F0A42DFEE435F090
:100880008067EF4E7005BD80D780C3EF8BF0A4ACBE
:10089000F0EE8BF0A42CFCE435F0F8EF8AF0A42CF9
:1008A000E5F038FCE433CB8DF0A42CFCE5F03BF80C
:1008B000EE8AF0A42CFCE5F038F8E433CF89F0A4FC
:1008C0002CFCE5F038CF3400CE89F0A42FFFE5F002
:1008D0003EFEE433C98DF0A42EFEE5F039CD8AF05A
:1008E000A42FFFE5F03EFEE43DFD33D0E0FB5007D2
:1008F0000BBB000F020A5AEC2CFCEF33FFEE33FE69
:06090000ED33FD020A3296
:10090600020A5AEC5D046005E859047003020A50B5
:10091600120A1B580460F6EC4860F2EC7004FDFE07
:10092600FF22C860DB2481C85009C39860025006C4
:10093600020A579850CAF582E9294B4A7005AB82DC
:10094600020A4675F0007C1A7880C3EF9BEE9AED9A
:1009560099400DC3EF9BFFEE9AFEED99FDE842F03C
:10096600DC23ACF0D0E0FFD0E0FED0E0FDAB82208F
:10097600E7101BEB60BAEC2CFCEF33FFEE33FEED19
:1009860033FD020A32E803F830E705C0F075F000DF
:10099600EF2FFFEE33FEED33FD40B830E7C280AAFD
:1009A60075F020800E75F010800575F0087D007ECC
:1009B600007F003392D530D503120B33EC33401051
:1009C600EF33FFEE33FEED33FDEC33FCD5F0ED22D5
:0E09D600E5F0247EA2D513CC92E7CDCEFF2211
:1009E400EDD2E7CD33EC3392D524814006E4FFFE0B
:1009F400FDFC22FCE4CFCECDCC24E0501174FF806A
:100A0400EDC3CC13CCCD13CDCE13CECF13CF047006
:070A1400F030D5DE020B33C8
:100A1B00E9D2E7C933E833F892D5EDD2E7CD33EC21
:070A2B0033FC5002B2D5229A
:100A3200EC30E7100FBF000C0EBE00080DBD000425
:100A42000BEB6014A2D5EB13FCED92E7FD2274FFD1
:100A5200FCFDFEFF22E480F8A2D574FF13FC7D802A
:030A6200E480EF3E
:03000000020C9A55
:0C0C9A00787FE4F6D8FD758120020CE1A3
:100A650075F008758200EF2FFFEE33FECD33CDCC48
:100A750033CCC58233C5829BED9AEC99E5829840CB
:100A85000CF582EE9BFEED9AFDEC99FC0FD5F0D6A8
:100A9500E4CEFBE4CDFAE4CCF9A88222B800C1B9D2
:100AA5000059BA002DEC8BF084CFCECDFCE5F0CB10
:100AB500F97818EF2FFFEE33FEED33FDEC33FCEB49
:100AC50033FB10D703994004EB99FB0FD8E5E4F904
:100AD500FA227818EF2FFFEE33FEED33FDEC33FCF1
:100AE500C933C910D7059BE99A4007EC9BFCE99AE5
:100AF500F90FD8E0E4C9FAE4CCFB2275F010EF2F2A
:100B0500FFEE33FEED33FDCC33CCC833C810D70729
:100B15009BEC9AE899400AED9BFDEC9AFCE899F864
:0E0B25000FD5F0DAE4CDFBE4CCFAE4C8F922F7
:0E0B3300C3E49FFFE49EFEE49DFDE49CFC22D3
:100B4100EB9FF5F0EA9E42F0E99D42F0E89C45F00A
:010B51002281
:100CA600020D26E493A3F8E493A34003F68001F231
:100CB60008DFF48029E493A3F85407240CC8C3334F
:100CC600C4540F4420C8834004F456800146F6DF1E
:100CD600E4800B0102040810204080900ECEE47ED2
:100CE600019360BCA3FF543F30E509541FFEE49313
:100CF600A360010ECF54C025E060A840B8E493A3DA
:100D0600FAE493A3F8E493A3C8C582C8CAC583CA04
:100D1600F0A3C8C582C8CAC583CADFE9DEE780BEBC
:010EE300000E
:00000001FF
