:1008000030313233343536373839203A2E2D00B373
:10081000ACC9F9B2A8B2E2BEE0CFB5CDB300D6C73D
:10082000C4DCCEA2BFD8B9A4D7F7CAD2004D00000D
:1008300000000000000000000000000000000000B8
:1008400000000000000000000000000000000000A8
:100850000000000000000000000000000000000098
:100860000000C00000000000006000000000000068
:100870000000E000000C000040700000008000005C
:100880000000E000001E0000607000000FE00000AB
:100890000001C000603C0000E060001FFFE00000BD
:1008A0000003800070704000E07E001FE0C0000088
:1008B0000003000073C3F001C3FC0038E1C0000076
:1008C00003C63C00339FF0038FC00030C1C000005E
:1008D0003FEFFE00031CE00701CC0031F180000077
:1008E00079DFBC000618C00E01FE0077F980000019
:1008F00001B03001C619C01E7FDE006F838000008A
:1009000023AC600FE6F1803E7B380061830000007D
:10091000370E000FC7B780EC633000E30300000020
:100920003E0E00018F3701CC6FF000C7F7000000CA
:100930001E0C00031E66030C7F0001FFE600000092
:100940001E1C00031C600219AC000196060000008A
:100950003E3E000318600019FC0003860E000000F4
:100960007E36000300C00038780003060C0000004B
:10097000E667000300C000307800060C0C000001A0
:10098000C6C3807FF0C00030FE000E0C1C000003C8
:100990008183C078FF800061CF801C0818000006AA
:1009A0000703E0001FFFE06707E03818F8000008C1
:1009B0000E01F80007FF80CE03F860007000000011
:1009C0001801F80001FC00C001FCC000700000002C
:1009D00000000000000000000000000060000000B7
:1009E0000000000000000000000000000000000007
:1009F00000000000000000000000000000000000F7
:100A000000000000001000000000000000000000D6
:100A100000060000001C00000000000000000000B4
:100A200000070000001C00000000000000000000A3
:100A300000060000000CE00001E0000000000000E3
:100A4000000E0000003FE000FFF0003800E0000072
:100A5000000C00000FFF8000F8F0003800E00000FC
:100A6000000CF0000FC7000060E0003800E000005C
:100A7000001FF000018E000060C0007001C0000087
:100A800007FF8000018C0000E180007001C00000C1
:100A900007F8000001980000DFC0007001C00000EE
:100AA0000078000001BFE000FF000060018000004E
:100AB00000FC00007FFFE000C00000E003800000B9
:100AC00001FE00007FF80000000000C003000000ED
:100AD00003B7000060000000003C00C003000000FD
:100AE00007670000600000039FFE00800200000016
:100AF0000E638000E00001FFCF1E018006000000B1
:100B00001CE1E000C00000E39C380180060000000A
:100B100038C1F801C00000C3183000000000000018
:100B2000E0FCFE03800001C7186000000000000127
:100B3000DFF8FE030000018E1BE007001C00000729
:100B400007800007000001FF3FE007001C00000CC9
:100B50000380000E000001F038000F003C00000090
:100B60000300001C00000100200006001800000027
:100B7000030000380000000000000000000000003A
:100B8000030000E000000000000000000000000082
:100B9000020001C000000000000000000000000092
:100BA0000000000000000000000000000000000045
:100BB0000000000000000000000000000000000035
:100BC0000000000000000000000000000000000025
:100BD0000000000000000000000000000000000015
:100BE0000000000000000000000000000000000005
:100BF00000000000000000000000000000000000F5
:100C000000000000000000000000000000000000E4
:100C100000000000000000000000000000000000D4
:0F0C2000000000000000000000000000000000C5
:1013E30002130000041500000000C10004190000EE
:0213F3000000F8
:101348007F0A7E00121369D2B3C201750F301211E1
:10135800F9C201750F0C1211F9C201750F010211C2
:01136800F98B
:0A11EF0014F5828E83120EADF50F89
:1011F9002001057510F880037510FAE50F54F0F514
:1012090011E50FC454F0F512AF101213BD7F057E1E
:1012190000121369AF111213BD7F017E0012136909
:0C122900AF121213BD7F017E000213699A
:1013BD00E4FEEF3392B4D2B5C2B5EF25E0FF0EBE19
:0213CD0008F026
:0113CF0022FB
:10136900E4FDFCC3ED9FEC9E5015E4FBFA0BBB00BA
:0F137900010AEB640A4A70F50DBD00010C80E417
:011388002242
:0610CF008B088A09890A62
:1010D500E4F50DF50EC201750F361211F9E4F50BA5
:1010E500C201E50B2480F50F1211F9C201750F80BD
:1010F5001211F9E4F50CD201AB08AA09A90A050EEB
:10110500E50EAE0D7002050D1211EF050CE50CC3D1
:10111500941040E2050BE50BC3942040C3E4F50BA6
:10112500C201E50B2480F50F1211F9C201750F8874
:101135001211F9E4F50CD201AB08AA09A90A050EAA
:10114500E50EAE0D7002050D1211EF050CE50CC391
:0D115500941040E2050BE50BC3942040C34D
:01116200226A
:0813F600C201750F010211F99B
:1012B800EF14600D14600C14601014601424047092
:1012C800178015ED2490F50B8013ED2488F50B801D
:1012D8000CED2498F50B8005ED2480F50BC20185F3
:0512E8000B0F0211F9DB
:1012ED008B088A09890A1212B8AB08AA09A90A1231
:1012FD000E94FF601BD201F50F1211F97401250A2E
:10130D00F50AE43509F5097F017E0012136980D9CC
:01131D0022AD
:1013D000D201EF90080093F50F1211F97F017E0002
:0313E0000213698C
:10131E001213F67BFF7A08791EE4FD7F011212ED9F
:10132E007BFF7A08790FE4FD7F021212ED7BFF7AC4
:0A133E0008792D7D077F030212EDF0
:100FB600AF8CEFFEAD8A7C00E42DF514EC3EF51304
:100FC600E4F58CF58AAC13AD14120DDA7B297A5C44
:100FD60079EF783F120C2FE4FBFA79C87842120DAC
:100FE60038120E138F188E178D168C15300024C2EA
:100FF600007D047F031212B87F0D1213D07F0C12EE
:1010060013D07D057F031212B87F0D1213D07F0D0A
:101016000210CBE47BE87A03F9F8AF18AE17AD16E9
:10102600AC15121235AC00AD01AE02AF03E47B6421
:10103600FAF9F81212358F1AE47BE87A03F9F8AF59
:1010460018AE17AD16AC15121235AC00AD01AE02D6
:10105600AF03E47B64FAF9F8121235AC00AD01AEC9
:1010660002AF03E47B0AFAF9F81212358F1BE47B10
:10107600E87A03F9F8AF18AE17AD16AC15121235AB
:10108600AC00AD01AE02AF03E47B0AFAF9F8121226
:1010960035AC00AD01AE02AF03E47B0AFAF9F812F3
:1010A6001235AF038F1C7D047F031212B8AF1A12DC
:1010B60013D07F0C1213D07D057F031212B8AF1B1D
:0910C6001213D0AF1C1213D0224A
:101389007C64EF4E60131CEC60087D0A1DED60F66D
:0913990080FAEF1F70EC1E80E9E0
:0113A2002228
:03000B000213FEDF
:0313FE00D20032E8
:1013A300D2920000000000000000000000000000D6
:0A13B30000000000000000C29222BA
:10127900758901E4F58CF58AD28C1213481213F69C
:101289007BFF7A08792F1210CF7FE87E031213694A
:1012990012134812131E1213A33091FDD28C209100
:0F12A900FDC28C120FB67F507E0012138980E7B2
:100C2F00EC4D6011E8497017ED33EC3304600DE4BF
:100C3F00FCFFFEFD22E933E8330470F8020E7F1249
:100C4F000E4A58046009E4CC24815006285009024A
:100C5F000E89284003020E86C0E0EB4A7044B9802B
:100C6F0006D0E0FB020E75EF4E701CBD8008EBFF47
:100C7F00EAFEE9FD80EBE98DF0A4FEE5F0020D1828
:100C8F00E9CDF9EAFEEBFFEF89F0A4FCE5F0CE89A0
:100C9F00F0A42EFFE435F0CD89F0A42DFEE435F05D
:100CAF008067EF4E7005BD80D780C3EF8BF0A4AC8B
:100CBF00F0EE8BF0A42CFCE435F0F8EF8AF0A42CC6
:100CCF00E5F038FCE433CB8DF0A42CFCE5F03BF8D9
:100CDF00EE8AF0A42CFCE5F038F8E433CF89F0A4C9
:100CEF002CFCE5F038CF3400CE89F0A42FFFE5F0CF
:100CFF003EFEE433C98DF0A42EFEE5F039CD8AF027
:100D0F00A42FFFE5F03EFEE43DFD33D0E0FB50079E
:100D1F000BBB000F020E89EC2CFCEF33FFEE33FE02
:060D2F00ED33FD020E6130
:100D3500020E89EC5D046005E859047003020E7F1C
:100D4500120E4A580460F6EC4860F2EC7004FDFEA1
:100D5500FF22C860DB2481C85009C3986002500691
:100D6500020E869850CAF582E9294B4A7005AB8276
:100D7500020E7575F0007C1A7880C3EF9BEE9AED34
:100D850099400DC3EF9BFFEE9AFEED99FDE842F009
:100D9500DC23ACF0D0E0FFD0E0FED0E0FDAB82205C
:100DA500E7101BEB60BAEC2CFCEF33FFEE33FEEDE6
:100DB50033FD020E61E803F830E705C0F075F00079
:100DC500EF2FFFEE33FEED33FD40B830E7C280AACA
:100DD50075F020800E75F010800575F0087D007E99
:100DE500007F003392D530D503120EDAEC33401074
:100DF500EF33FFEE33FEED33FDEC33FCD5F0ED22A2
:0E0E0500E5F0247EA2D513CC92E7CDCEFF22DD
:100E1300EDD2E7CD33EC3392D524814006E4FFFED7
:100E2300FDFC22FCE4CFCECDCC24E0501174FF8036
:100E3300EDC3CC13CCCD13CDCE13CECF13CF0470D3
:070E4300F030D5DE020EDAEB
:100E4A00E9D2E7C933E833F892D5EDD2E7CD33ECEE
:070E5A0033FC5002B2D52267
:100E6100EC30E7100FBF000C0EBE00080DBD0004F2
:100E71000BEB6014A2D5EB13FCED92E7FD2274FF9E
:100E8100FCFDFEFF22E480F8A2D574FF13FC7D80F7
:030E9100E480EF0B
:0300000002116387
:0C116300787FE4F6D8FD7581200211AA07
:100E9400BB010689828A83E0225002E722BBFE025C
:090EA400E32289828A83E493228F
:100EAD00BB010CE58229F582E5833AF583E02250FA
:100EBD0006E92582F8E622BBFE06E92582F8E22244
:0D0ECD00E58229F582E5833AF583E493225E
:10123500C2D5E830E70FB2D5E4C39BFBE49AFAE4E4
:1012450099F9E498F8EC30E717B2D512126B120F42
:1012550024E4C39BFBE49AFAE499F9E498F8800343
:10126500120F2430D50DE4C39FFFE49EFEE49DFDDF
:04127500E49CFC22D7
:0E0EDA00C3E49FFFE49EFEE49DFDE49CFC2229
:10116F00021279E493A3F8E493A34003F68001F20B
:10117F0008DFF48029E493A3F85407240CC8C33381
:10118F00C4540F4420C8834004F456800146F6DF50
:10119F00E4800B01020408102040809013E3E47EEA
:1011AF00019360BCA3FF543F30E509541FFEE49345
:1011BF00A360010ECF54C025E060A840B8E493A30C
:1011CF00FAE493A3F8E493A3C8C582C8CAC583CA37
:1011DF00F0A3C8C582C8CAC583CADFE9DEE780BEEF
:0113F50000F7
:100EE80075F008758200EF2FFFEE33FECD33CDCCC1
:100EF80033CCC58233C5829BED9AEC99E582984044
:100F08000CF582EE9BFEED9AFDEC99FC0FD5F0D620
:100F1800E4CEFBE4CDFAE4CCF9A88222B800C1B94A
:100F28000059BA002DEC8BF084CFCECDFCE5F0CB88
:100F3800F97818EF2FFFEE33FEED33FDEC33FCEBC1
:100F480033FB10D703994004EB99FB0FD8E5E4F97C
:100F5800FA227818EF2FFFEE33FEED33FDEC33FC69
:100F6800C933C910D7059BE99A4007EC9BFCE99A5D
:100F7800F90FD8E0E4C9FAE4CCFB2275F010EF2FA2
:100F8800FFEE33FEED33FDCC33CCC833C810D707A2
:100F98009BEC9AE899400AED9BFDEC9AFCE899F8DD
:0E0FA8000FD5F0DAE4CDFBE4CCFAE4C8F92270
:00000001FF
